S014000050726F6A65637446696E616C2E737265634F
S113000045C0000062C0000060C000005EC0000087
S11300105CC000005AC0000058C0000056C0000078
S113002054C0000052C0000050C000004EC0000088
S11300304CC00000A8C1000048C0000046C0000039
S113004044C0000042C0000040C000003EC00000A8
S11300503CC000003AC0000038C0000036C00000B8
S113006034C0000032C0000030C000002EC00000C8
S11300702CC000002AC0000028C0000026C00000D8
S113008024C0000022C0000020C0000011241FBEB4
S1130090CFEFD0E4DEBFCDBF11E0A0E0B1E0E8E7F0
S11300A0F5E100E00BBF02C007900D92A239B10741
S11300B0D9F721E0A2E9B1E001C01D92AB3CB2073F
S11300C0E1F70E94470A0C94BA0A9ACFCF93DF93C0
S11300D0CDB7DEB781E01AD00000DF91CF9108954B
S11300E0CF93DF93CDB7DEB784E690E0ACD088E35E
S11300F00DD086E00BD08FE009D081E007D08AE0F4
S113010090E0A1D00000DF91CF910895CF93DF93C9
S11301101F92CDB7DEB789838BE290E02BE230E00B
S1130120F90120812F7BFC01208388E290E0298162
S1130130FC0120838BE290E02BE230E0F901208186
S11301402068FC01208300008BE290E02BE230E089
S1130150F90120812F77FC01208382E090E073D0A5
S113016000000F90DF91CF910895CF93DF931F92FA
S1130170CDB7DEB789838BE290E02BE230E0F90162
S113018020812064FC01208388E290E02981FC0125
S113019020838BE290E02BE230E0F901208120689B
S11301A0FC01208300008BE290E02BE230E0F901B7
S11301B020812F77FC01208381E090E044D000006F
S11301C00F90DF91CF910895CF93DF9300D000D0AB
S11301D0CDB7DEB78A837C836B8378DF8A8189839A
S11301E00FC0898191E0980F998318D08B819C81ED
S11301F09C012F5F3F4F3C832B83FC018081B5DF43
S11302008B819C81FC018081882359F700000F9029
S11302100F900F900F90DF91CF910895CF93DF93BC
S11302201F92CDB7DEB789838981813120F489811A
S113023081586CDF03C08981815568DF00000F900D
S1130240DF91CF910895CF93DF9300D000D000D0F9
S1130250CDB7DEB79E838D831A82198213C01C82A8
S11302601B8206C000008B819C8101969C838B833A
S11302708B819C8187309340ACF389819A8101966C
S11302809A83898329813A818D819E812817390730
S113029034F3000026960FB6F894DEBF0FBECDBF30
S11302A0DF91CF910895CF93DF9300D000D0CDB7E5
S11302B0DEB769837A838B839C8389819A81AB813E
S11302C0BC818093000190930101A0930201B0933B
S11302D003018091000190910101A0910201B0916C
S11302E003018093930190939401A0939501B0939B
S11302F0960100000F900F900F900F90DF91CF9117
S11303000895CF93DF93CDB7DEB781E890E02BE07B
S1130310FC01208388E890E02DE730E0FC01318384
S113032020838FE690E022E0FC01208384E890E0C3
S1130330FC01118210828091000190910101A09131
S11303400201B09103018093930190939401A093CF
S11303509501B09396018FE590E02FE530E0F90127
S113036020812068FC0120830000DF91CF91089553
S1130370CF93DF93CDB7DEB781E080939201000085
S1130380DF91CF9108951F920F9200905F000F921A
S1130390112400905B000F922F933F934F935F9330
S11303A06F937F938F939F93AF93BF93EF93FF9339
S11303B0CF93DF93CDB7DEB78091930190919401F1
S11303C0A0919501B09196010197A109B10980937B
S11303D0930190939401A0939501B0939601809119
S11303E0930190919401A0919501B0919601892B6C
S11303F08A2B8B2B89F4BCDF809100019091010141
S1130400A0910201B0910301809393019093940110
S1130410A0939501B09396010000DF91CF91FF91D5
S1130420EF91BF91AF919F918F917F916F915F9168
S11304304F913F912F910F9000925B000F9000928B
S11304405F000F901F901895CF93DF9300D000D0DA
S1130450CDB7DEB79B838A836C838C818830D0F4DC
S11304608C81882F90E00896880F880F880F4EDEC5
S113047019820DC08981882F90E02A813B81820FE7
S1130480931FFC01808171DE89818F5F898389815B
S1130490883080F300000F900F900F900F90DF9141
S11304A0CF910895CF93DF9300D01F92CDB7DEB7DD
S11304B09A8389836B8300008FE390E0FC01808141
S11304C0882F90E082709927892BB1F781E490E01E
S11304D029813A81FC013183208380E490E02B81DF
S11304E0FC0120838FE390E02FE330E0F9012081C9
S11304F02460FC0120838FE390E02FE330E0F901D6
S113050020812260FC01208300000F900F900F9047
S1130510DF91CF910895CF93DF9300D0CDB7DEB7AD
S11305209A83898300008FE390E0FC018081882F07
S113053090E082709927892BB1F781E490E02981BA
S11305403A81FC01318320838FE390E02FE330E094
S1130550F90120812160FC01208380E490E0FC010A
S113056080810F900F90DF91CF910895CF93DF9307
S1130570CDB7DEB78AE790E02AE730E0F9012081C1
S1130580206EFC0120830000DF91CF910895CF936A
S1130590DF93CDB7DEB78091C201882F90E0813020
S11305A0910581F08230910501F1892B49F5809103
S11305B0A401882321F081E08093C20124C0109219
S11305C0C20121C08091A401882319F41092C201B0
S11305D01AC08091A201882321F082E08093C20195
S11305E012C081E08093C2010EC08091A4018823CF
S11305F019F41092C20107C082E08093C20103C0C3
S11306001092C20100008091C201882F90E00097EF
S113061019F0019721F02AC01092A50127C08091FA
S1130620A501823038F080919A018F5F80939A01FE
S11306301092A50180919A018A3038F080919B0133
S11306408F5F80939B0110929A0180919B018A3065
S113065038F080919C018F5F80939C0110929B01E4
S11306608091A5018F5F8093A50100000000DF91B8
S1130670CF910895CF93DF93CDB7DEB72A970FB606
S1130680F894DEBF0FBECDBF8091C501882F90E0E6
S11306908230910509F434C18330910534F4009714
S11306A061F0019709F4C3C016C28330910509F4BF
S11306B0B3C1049709F4CBC10EC281E08093C50194
S11306C086E180930601809106018093C8018091A0
S11306D0C8018093AC018091AC018093B7018091F3
S11306E0B7018093B10186E18093070180910701EE
S11306F08093BC0110929E0180919E018093C6015B
S11307008091C6018093C1018091C1018093A801A9
S11307108091A8018093B50183E080930401109235
S11307209F0180919F018093BD018091BD018093C1
S1130730BE0181E0809308011092A0018091A00184
S11307408093B4018091B4018093B2018091B2018D
S11307508093BF011092A1018091A1018093B00107
S11307608091B0018093A9018091A9018093AB018C
S11307708091AB018093B3018091B3018093C00158
S11307808091C0018093BB018091BB018093AE0135
S11307901092A4011092A20181E180938F018091B3
S11307A08F018093B9018091B9018093AA0180914E
S11307B0AA018093AF0181E280939001809190011E
S11307C08093B6018091B6018093C7018091C701DF
S11307D08093C4011092A3011092A60110929C016F
S11307E080919C0180939B0180919B0180939A014D
S11307F06DDC81E013DD84E0B8DC84E0B6DC1A82D1
S113080019820CC089819A818F5B9E4FFC01808183
S1130810ACDC89819A8101969A83898389819A8142
S11308200C9784F385E0A1DC85E09FDC58C180E26D
S113083090E0FC018081882F90E088709927892BB3
S113084071F580E290E0FC018081882F90E0847053
S11308509927892B21F180E290E0FC018081882F87
S113086090E082709927892BD1F084E08093C501B0
S11308702DDC81E0D3DC1C821B820CC08B819C812B
S11308808F599E4FFC01808170DC8B819C81019685
S11308909C838B838B819C810C9784F330C080E292
S11308A090E0FC018081882F90E082709927892B49
S11308B011F580E290E0FC018081882F90E0847043
S11308C09927892BC1F080E290E0FC018081882F78
S11308D090E088709927892B71F082E08093C5019C
S11308E081E08093A4016EE671E081E06DDC83E039
S11308F08093040104C081E08093C501F0C0EFC07F
S11309008091A201882309F46CC083E08093C5011F
S113091084E090E000DE8093C90185E090E0FBDD97
S11309208093BA0186E090E0F6DD80939D0190917A
S11309309C018091C901891798F480919C01682FCA
S113094084E090E0AFDD80919B01682F85E090E02A
S1130950A9DD80919A01682F86E090E0A3DDBEC0F6
S113096090919C018091C901981709F0B7C09091AA
S11309709B018091BA01891798F480919C01682F9A
S113098084E090E08FDD80919B01682F85E090E00A
S113099089DD80919A01682F86E090E083DD9EC016
S11309A090919B018091BA01981709F097C090919A
S11309B09A0180919D01891708F090C080919C0153
S11309C0682F84E090E06EDD80919B01682F85E0C4
S11309D090E068DD80919A01682F86E090E062DD06
S11309E07DC080E290E0FC018081882F90E08470DB
S11309F09927892B69F480E290E0FC018081882F9B
S1130A0090E082709927892B19F01092C50166C075
S1130A1082E08093C50162C080E290E0FC018081A5
S1130A20882F90E084709927892B69F480E290E004
S1130A30FC018081882F90E082709927892B19F01E
S1130A401092C5014CC083E08093C50148C080E288
S1130A5090E0FC018081882F90E088709927892B91
S1130A60C1F480E290E0FC018081882F90E08470E2
S1130A709927892B71F080E290E0FC018081882F16
S1130A8090E082709927892B21F084E08093C5013E
S1130A9026C081E08093C50119DB81E0BFDB84E0DF
S1130AA064DB84E062DB1E821D820CC08D819E812A
S1130AB08F5B9E4FFC01808158DB8D819E81019666
S1130AC09E838D838D819E810C9784F385E04DDB1D
S1130AD085E04BDB04C01092C50101C00000809189
S1130AE0C501882F90E08230910561F08330910533
S1130AF00CF4CEC08330910509F45BC0049709F46B
S1130B00A9C0C9C08091040189DB81E02EDB81E0AA
S1130B1085DB8FE52ADB81E181DB8FE526DB8091B4
S1130B20AE01882329F08091050178DB83E01DDB89
S1130B308091BB01882329F08091B1016FDB82E0B1
S1130B4014DB8091C001882329F08091B70166DB12
S1130B5083E00BDB8091B301882329F08091AC0101
S1130B605DDB82E002DB8091AB01882329F0809178
S1130B70C80154DB86E0F9DA8091A901882329F0C1
S1130B80809106014BDB86E0F0DA8091B001882386
S1130B9029F08091BC0142DB83E0E7DA8091A10176
S1130BA0882309F477C08091070138DB82E0DDDA1D
S1130BB071C08091A6018E3148F188DA81E02EDB84
S1130BC018861F820CC08F819885875A9E4FFC011E
S1130BD08081CBDA8F819885019698878F838F8166
S1130BE09885079784F388E019DB80919C01805DE8
S1130BF0BCDA89E013DB80919B01805DB6DA8AE080
S1130C000DDB80919A01805DB0DA1EC05FDA82E06C
S1130C1005DB87E0AADA87E0A8DA1A8619860CC011
S1130C2089859A85825B9E4FFC0180819EDA898545
S1130C309A8501969A87898789859A850A9784F384
S1130C4087E093DA87E091DA8091A6018F5F809341
S1130C50A60121C084E090E05EDC8093AD0185E0D4
S1130C6090E059DC8093CA0186E090E054DC8093E4
S1130C7099018DE0D3DA8091AD01805D76DA8091BF
S1130C80CA01805D72DA80919901805D6EDA03C0D9
S1130C90000001C0000000002A960FB6F894DEBFE1
S1130CA00FBECDBFDF91CF910895CF93DF93CDB722
S1130CB0DEB78091A701882F90E0009719F0019783
S1130CC061F016C08091A401882321F081E0809313
S1130CD0A7010EC01092A7010BC08091A401882324
S1130CE021F081E08093A70102C01092A7010000C7
S1130CF08091A701882F90E0009719F0019729F0BF
S1130D0022C083E0809304011EC0809197019091DA
S1130D1098018039914040F483E08093040183E199
S1130D207DDA8FE522DA0EC08091970190919801C7
S1130D308B3D924038F083E18093040183E06EDAC6
S1130D408FE513DA00000000DF91CF910895CF936F
S1130D50DF93CDB7DEB78091B801882F90E000977C
S1130D6019F0019761F016C08091A401882321F045
S1130D7081E08093B8010EC01092B8010BC080913D
S1130D80A401882321F081E08093B80102C010926D
S1130D90B80100008091B801882F90E0019709F014
S1130DA0BEC280910801882309F464C08091B50112
S1130DB0833011F41092AE018091A801833011F4B4
S1130DC01092BB018091AF018230B0F08091B501E7
S1130DD0833091F08091AF0121DA8FE5C6D98091FB
S1130DE0AF0181508093AF018091AF0180930501E1
S1130DF081E08093AE0110C08091AF01823060F435
S1130E008091B501833041F081E18093AF018091FD
S1130E10B5018F5F8093B5018091A301843050F1B7
S1130E208091C4018231B0F08091A801833091F0A7
S1130E308091C401F3D98FE598D98091C401815080
S1130E408093C4018091C4018093B10181E08093B7
S1130E50BB0110C08091C401823160F48091A8016B
S1130E60833041F081E28093C4018091A8018F5FB7
S1130E708093A8018091BF01882309F4CCC080919C
S1130E80C4018231B0F08091A801833091F0809147
S1130E90C401C4D98FE569D98091C401815080937C
S1130EA0C4018091C4018093B10181E08093BB01AE
S1130EB010C08091C401823160F48091A801833014
S1130EC041F081E28093C4018091A8018F5F8093F7
S1130ED0A8018091A301843050F18091AF01823048
S1130EE0B0F08091B501833091F08091AF0196D933
S1130EF08FE53BD98091AF0181508093AF01809100
S1130F00AF018093050181E08093AE0110C0809110
S1130F10AF01823060F48091B501833041F081E10A
S1130F208093AF018091B5018F5F8093B50180916B
S1130F30A301893150F18091AA018230B0F08091EF
S1130F40C101823091F08091AA0168D98FE50DD951
S1130F508091AA0181508093AA018091AA01809373
S1130F60B70181E08093C00110C08091AA01823052
S1130F7060F48091C101823041F081E18093AA0143
S1130F808091C1018F5F8093C1018091A3018C3155
S1130F9050F18091C7018231B0F08091C601823056
S1130FA091F08091C7013AD98FE5DFD88091C701CC
S1130FB081508093C7018091C7018093AC0181E087
S1130FC08093B30110C08091C701823160F4809195
S1130FD0C601823041F081E28093C7018091C6014D
S1130FE08F5F8093C6018091A801833011F4109221
S1130FF0BB018091B501833011F41092AE01809150
S1131000C101823011F41092C0018091C601823076
S113101011F41092B3018091B201882309F4DDC068
S11310208091AF018230B0F08091B501833091F0AE
S11310308091AF01F3D88FE598D88091AF018150AA
S11310408093AF018091AF018093050181E080938B
S1131050AE0114C08091AF01823080F48091B5015B
S1131060833061F081E18093AF018091B5018F5F9E
S11310708093B50181E0D2D88FE577D88091A30120
S11310808E3070F180918F018230B0F08091C10177
S1131090833091F080918F01C1D88FE566D880911B
S11310A08F01815080938F0180918F018093B701CC
S11310B081E08093C00114C080918F01823080F45C
S11310C08091C101833061F081E180938F0180912F
S11310D0C1018F5F8093C10181E0A0D88FE545D81D
S11310E08091A301863070F18091C4018231B0F007
S11310F08091BE01823091F08091C4018FD88FE538
S113110034D88091C40181508093C4018091C4017A
S11311108093060181E08093A90114C08091AF01FE
S1131120823180F48091BE01823061F081E280934B
S1131130C4018091BE018F5F8093BE0181E16ED8AE
S11311408FE513D88091A3018C3178F18091C70188
S11311508231B0F08091C601823091F08091C70154
S11311605DD88FE502D88091C70181508093C70173
S11311708091C7018093AC0181E08093B30115C0D5
S11311808091C701823188F48091C601823069F070
S113119081E28093C7018091C6018F5F8093C6016D
S11311A081E13CD88FE50E94B5008091B501833080
S11311B011F41092AE018091C101833011F41092A8
S11311C0C0018091BE01823011F41092A901809176
S11311D0C601823011F41092B30180910801882372
S11311E0E9F08091B501282F30E08091A801882F83
S11311F090E0820F931F069789F41092080181E012
S11312008093BF011092B5011092A80181E18093EF
S1131210AF0181E28093C4011092A3018091BF01C8
S1131220882309F43FC08091A801282F30E08091E1
S1131230B501882F90E0280F391F8091C101882FB4
S113124090E0280F391F8091C601882F90E0820F0B
S1131250931F0A9739F51092BF0181E08093B20180
S11312601092A8011092B5011092C1011092C6010A
S113127081E00E940E018FE50E94B50081E10E9489
S11312800E018FE50E94B50081E18093AF0181E1F9
S11312908093AA0181E28093C40181E28093C70113
S11312A01092A3018091B201882399F18091B50134
S11312B0282F30E08091C101882F90E0280F391F3A
S11312C08091BE01882F90E0280F391F8091C601BC
S11312D0882F90E0820F931F0A97D9F41092B201DD
S11312E081E0809308011092B5011092C10110921F
S11312F0BE011092C60181E180938F0181E1809348
S1131300AF0181E28093C40181E28093C70110920E
S1131310A3018091A3018F5F8093A30100000000CB
S1131320DF91CF910895CF93DF93CDB7DEB780914E
S1131330C301882F90E08130910581F082309105BE
S113134001F1892B41F58091A401882321F081E0EA
S11313508093C30123C01092C30120C08091A401D3
S1131360882319F41092C30119C08091A201882323
S113137021F082E08093C30111C081E08093C30116
S11313800DC08091A401882321F082E08093C301E1
S113139002C01092C3011092C30100008091C301E6
S11313A0882F90E0009719F0019721F06CC01092FB
S11313B0A20169C08091AE01882349F09091040193
S11313C080910501981719F481E08093A20180911E
S11313D0BB01882349F0909104018091B1019817D1
S11313E019F481E08093A2018091C001882349F01F
S11313F0909104018091B701981719F481E08093CA
S1131400A2018091B301882349F090910401809155
S1131410AC01981719F481E08093A2018091AB018B
S1131420882349F0909104018091C801981719F418
S113143081E08093A2018091A901882349F09091D1
S1131440040180910601981719F481E08093A201A8
S11314508091B001882349F0909104018091BC01EE
S1131460981719F481E08093A2018091A101882347
S113147049F09091040180910701981719F481E0D3
S11314808093A20100000000DF91CF910895CF93D3
S1131490DF93CDB7DEB78AE290E02FEFFC01208323
S11314A08BE290E0FC01108287E290E02FEFFC01D8
S11314B0208388E290E0FC01108281E290E0FC014C
S11314C0108282E290E02FEFFC01208366E970E055
S11314D080E090E00E9453010E9481010E9470000C
S11314E08CE00E94860061E089E291E00E9424027F
S11314F062E089E391E00E94240263E081E391E0E9
S11315000E94240264E089E091E00E94240265E0E4
S113151081E191E00E94240266E081E291E00E9470
S1131520240267E089E191E00E94240280E80E949D
S113153086001CD81092C5011092A7011092B80120
S11315401092C3011092C20188E790E0FC018081EF
S113155091819093980180939701F9DB8BD8A5DB57
S1131560E2DE15D80000809192018823E1F3109205
S10B15709201EACFF894FFCFC9
S1131578010000000310161601060E1E1A120202BC
S1131588000C0E0F0B090808001F151F1F110E1F52
S11315981F1F1F1F0E04040E0E0F0B0E190E0E1A1A
S11315A8001F0E151F110E1F1500040E1F1F1F1FED
S11315B8005072657373205374617274210047611B
S11315C86D65204F766572210053636F72653A200A
S11315D800486967682053636F72653A20005F5F4B
S11315E85F5F5F5F5F5F5F5F5F5F5F5F5F5F5F5FFF
S11315F85F5F5F5F5F5F5F5F5F5F5F5F5F5F00119C
S10516082100BB
S9030000FC
